{
  "contractName": "Presale",
  "abi": [
    {
      "inputs": [
        {
          "internalType": "uint256",
          "name": "_rate",
          "type": "uint256"
        },
        {
          "internalType": "address",
          "name": "_wallet",
          "type": "address"
        },
        {
          "internalType": "contract IERC20",
          "name": "_token",
          "type": "address"
        }
      ],
      "stateMutability": "nonpayable",
      "type": "constructor"
    },
    {
      "inputs": [
        {
          "internalType": "address",
          "name": "owner",
          "type": "address"
        }
      ],
      "name": "OwnableInvalidOwner",
      "type": "error"
    },
    {
      "inputs": [
        {
          "internalType": "address",
          "name": "account",
          "type": "address"
        }
      ],
      "name": "OwnableUnauthorizedAccount",
      "type": "error"
    },
    {
      "anonymous": false,
      "inputs": [
        {
          "indexed": true,
          "internalType": "address",
          "name": "previousOwner",
          "type": "address"
        },
        {
          "indexed": true,
          "internalType": "address",
          "name": "newOwner",
          "type": "address"
        }
      ],
      "name": "OwnershipTransferred",
      "type": "event"
    },
    {
      "anonymous": false,
      "inputs": [
        {
          "indexed": true,
          "internalType": "address",
          "name": "purchaser",
          "type": "address"
        },
        {
          "indexed": false,
          "internalType": "uint256",
          "name": "value",
          "type": "uint256"
        },
        {
          "indexed": false,
          "internalType": "uint256",
          "name": "amount",
          "type": "uint256"
        }
      ],
      "name": "TokensPurchased",
      "type": "event"
    },
    {
      "inputs": [],
      "name": "owner",
      "outputs": [
        {
          "internalType": "address",
          "name": "",
          "type": "address"
        }
      ],
      "stateMutability": "view",
      "type": "function"
    },
    {
      "inputs": [],
      "name": "rate",
      "outputs": [
        {
          "internalType": "uint256",
          "name": "",
          "type": "uint256"
        }
      ],
      "stateMutability": "view",
      "type": "function"
    },
    {
      "inputs": [],
      "name": "renounceOwnership",
      "outputs": [],
      "stateMutability": "nonpayable",
      "type": "function"
    },
    {
      "inputs": [],
      "name": "token",
      "outputs": [
        {
          "internalType": "contract IERC20",
          "name": "",
          "type": "address"
        }
      ],
      "stateMutability": "view",
      "type": "function"
    },
    {
      "inputs": [
        {
          "internalType": "address",
          "name": "newOwner",
          "type": "address"
        }
      ],
      "name": "transferOwnership",
      "outputs": [],
      "stateMutability": "nonpayable",
      "type": "function"
    },
    {
      "inputs": [],
      "name": "weiRaised",
      "outputs": [
        {
          "internalType": "uint256",
          "name": "",
          "type": "uint256"
        }
      ],
      "stateMutability": "view",
      "type": "function"
    },
    {
      "stateMutability": "payable",
      "type": "receive"
    },
    {
      "inputs": [],
      "name": "buyTokens",
      "outputs": [],
      "stateMutability": "payable",
      "type": "function"
    },
    {
      "inputs": [
        {
          "internalType": "uint256",
          "name": "newRate",
          "type": "uint256"
        }
      ],
      "name": "setRate",
      "outputs": [],
      "stateMutability": "nonpayable",
      "type": "function"
    }
  ],
  "bytecode": "0x608060405234801562000010575f80fd5b5060405162000e5238038062000e528339818101604052810190620000369190620003d3565b335f73ffffffffffffffffffffffffffffffffffffffff168173ffffffffffffffffffffffffffffffffffffffff1603620000aa575f6040517f1e4fbdf7000000000000000000000000000000000000000000000000000000008152600401620000a191906200043d565b60405180910390fd5b620000bb816200023360201b60201c565b505f831162000101576040517f08c379a0000000000000000000000000000000000000000000000000000000008152600401620000f890620004b6565b60405180910390fd5b5f73ffffffffffffffffffffffffffffffffffffffff168273ffffffffffffffffffffffffffffffffffffffff160362000172576040517f08c379a0000000000000000000000000000000000000000000000000000000008152600401620001699062000524565b60405180910390fd5b5f73ffffffffffffffffffffffffffffffffffffffff168173ffffffffffffffffffffffffffffffffffffffff1603620001e3576040517f08c379a0000000000000000000000000000000000000000000000000000000008152600401620001da9062000592565b60405180910390fd5b826002819055508060015f6101000a81548173ffffffffffffffffffffffffffffffffffffffff021916908373ffffffffffffffffffffffffffffffffffffffff160217905550505050620005b2565b5f805f9054906101000a900473ffffffffffffffffffffffffffffffffffffffff169050815f806101000a81548173ffffffffffffffffffffffffffffffffffffffff021916908373ffffffffffffffffffffffffffffffffffffffff1602179055508173ffffffffffffffffffffffffffffffffffffffff168173ffffffffffffffffffffffffffffffffffffffff167f8be0079c531659141344cd1fd0a4f28419497f9722a3daafe3b4186f6b6457e060405160405180910390a35050565b5f80fd5b5f819050919050565b6200030c81620002f8565b811462000317575f80fd5b50565b5f815190506200032a8162000301565b92915050565b5f73ffffffffffffffffffffffffffffffffffffffff82169050919050565b5f6200035b8262000330565b9050919050565b6200036d816200034f565b811462000378575f80fd5b50565b5f815190506200038b8162000362565b92915050565b5f6200039d826200034f565b9050919050565b620003af8162000391565b8114620003ba575f80fd5b50565b5f81519050620003cd81620003a4565b92915050565b5f805f60608486031215620003ed57620003ec620002f4565b5b5f620003fc868287016200031a565b93505060206200040f868287016200037b565b92505060406200042286828701620003bd565b9150509250925092565b62000437816200034f565b82525050565b5f602082019050620004525f8301846200042c565b92915050565b5f82825260208201905092915050565b7f52617465206973203000000000000000000000000000000000000000000000005f82015250565b5f6200049e60098362000458565b9150620004ab8262000468565b602082019050919050565b5f6020820190508181035f830152620004cf8162000490565b9050919050565b7f57616c6c657420697320746865207a65726f20616464726573730000000000005f82015250565b5f6200050c601a8362000458565b91506200051982620004d6565b602082019050919050565b5f6020820190508181035f8301526200053d81620004fe565b9050919050565b7f546f6b656e20697320746865207a65726f2061646472657373000000000000005f82015250565b5f6200057a60198362000458565b9150620005878262000544565b602082019050919050565b5f6020820190508181035f830152620005ab816200056c565b9050919050565b61089280620005c05f395ff3fe60806040526004361061007e575f3560e01c80638da5cb5b1161004d5780638da5cb5b14610123578063d0febe4c1461014d578063f2fde38b14610157578063fc0c546a1461017f5761008d565b80632c4e722e1461009157806334fcf437146100bb5780634042b66f146100e3578063715018a61461010d5761008d565b3661008d5761008b6101a9565b005b5f80fd5b34801561009c575f80fd5b506100a5610312565b6040516100b2919061057a565b60405180910390f35b3480156100c6575f80fd5b506100e160048036038101906100dc91906105c1565b610318565b005b3480156100ee575f80fd5b506100f761032a565b604051610104919061057a565b60405180910390f35b348015610118575f80fd5b50610121610330565b005b34801561012e575f80fd5b50610137610343565b604051610144919061062b565b60405180910390f35b6101556101a9565b005b348015610162575f80fd5b5061017d6004803603810190610178919061066e565b61036a565b005b34801561018a575f80fd5b506101936103ee565b6040516101a091906106f4565b60405180910390f35b5f3490505f600254826101bc919061073a565b90508160035f8282546101cf919061077b565b9250508190555060015f9054906101000a900473ffffffffffffffffffffffffffffffffffffffff1673ffffffffffffffffffffffffffffffffffffffff1663a9059cbb33836040518363ffffffff1660e01b81526004016102329291906107ae565b6020604051808303815f875af115801561024e573d5f803e3d5ffd5b505050506040513d601f19601f82011682018060405250810190610272919061080a565b503373ffffffffffffffffffffffffffffffffffffffff167f8fafebcaf9d154343dad25669bfa277f4fbacd7ac6b0c4fed522580e040a0f3383836040516102bb929190610835565b60405180910390a26102cb610343565b73ffffffffffffffffffffffffffffffffffffffff166108fc8390811502906040515f60405180830381858888f1935050505015801561030d573d5f803e3d5ffd5b505050565b60025481565b610320610413565b8060028190555050565b60035481565b610338610413565b6103415f61049a565b565b5f805f9054906101000a900473ffffffffffffffffffffffffffffffffffffffff16905090565b610372610413565b5f73ffffffffffffffffffffffffffffffffffffffff168173ffffffffffffffffffffffffffffffffffffffff16036103e2575f6040517f1e4fbdf70000000000000000000000000000000000000000000000000000000081526004016103d9919061062b565b60405180910390fd5b6103eb8161049a565b50565b60015f9054906101000a900473ffffffffffffffffffffffffffffffffffffffff1681565b61041b61055b565b73ffffffffffffffffffffffffffffffffffffffff16610439610343565b73ffffffffffffffffffffffffffffffffffffffff16146104985761045c61055b565b6040517f118cdaa700000000000000000000000000000000000000000000000000000000815260040161048f919061062b565b60405180910390fd5b565b5f805f9054906101000a900473ffffffffffffffffffffffffffffffffffffffff169050815f806101000a81548173ffffffffffffffffffffffffffffffffffffffff021916908373ffffffffffffffffffffffffffffffffffffffff1602179055508173ffffffffffffffffffffffffffffffffffffffff168173ffffffffffffffffffffffffffffffffffffffff167f8be0079c531659141344cd1fd0a4f28419497f9722a3daafe3b4186f6b6457e060405160405180910390a35050565b5f33905090565b5f819050919050565b61057481610562565b82525050565b5f60208201905061058d5f83018461056b565b92915050565b5f80fd5b6105a081610562565b81146105aa575f80fd5b50565b5f813590506105bb81610597565b92915050565b5f602082840312156105d6576105d5610593565b5b5f6105e3848285016105ad565b91505092915050565b5f73ffffffffffffffffffffffffffffffffffffffff82169050919050565b5f610615826105ec565b9050919050565b6106258161060b565b82525050565b5f60208201905061063e5f83018461061c565b92915050565b61064d8161060b565b8114610657575f80fd5b50565b5f8135905061066881610644565b92915050565b5f6020828403121561068357610682610593565b5b5f6106908482850161065a565b91505092915050565b5f819050919050565b5f6106bc6106b76106b2846105ec565b610699565b6105ec565b9050919050565b5f6106cd826106a2565b9050919050565b5f6106de826106c3565b9050919050565b6106ee816106d4565b82525050565b5f6020820190506107075f8301846106e5565b92915050565b7f4e487b71000000000000000000000000000000000000000000000000000000005f52601160045260245ffd5b5f61074482610562565b915061074f83610562565b925082820261075d81610562565b915082820484148315176107745761077361070d565b5b5092915050565b5f61078582610562565b915061079083610562565b92508282019050808211156107a8576107a761070d565b5b92915050565b5f6040820190506107c15f83018561061c565b6107ce602083018461056b565b9392505050565b5f8115159050919050565b6107e9816107d5565b81146107f3575f80fd5b50565b5f81519050610804816107e0565b92915050565b5f6020828403121561081f5761081e610593565b5b5f61082c848285016107f6565b91505092915050565b5f6040820190506108485f83018561056b565b610855602083018461056b565b939250505056fea26469706673582212204d15c56ef9ffc18d93910abcba9463e9f237705dd1a78c2d607b0e07de59c1d564736f6c63430008140033",
  "immutableReferences": {},
  "source": "// SPDX-License-Identifier: MIT\r\npragma solidity ^0.8.20;\r\n\r\nimport \"@openzeppelin/contracts/access/Ownable.sol\";\r\nimport \"@openzeppelin/contracts/token/ERC20/IERC20.sol\";\r\n\r\ncontract Presale is Ownable {\r\n    IERC20 public token;\r\n    uint256 public rate; // rate in tokens per ether\r\n    uint256 public weiRaised;\r\n\r\n    constructor(uint256 _rate, address _wallet, IERC20 _token) Ownable(msg.sender) {\r\n        require(_rate > 0, \"Rate is 0\");\r\n        require(_wallet != address(0), \"Wallet is the zero address\");\r\n        require(address(_token) != address(0), \"Token is the zero address\");\r\n\r\n        rate = _rate;\r\n        token = _token;\r\n    }\r\n\r\n    receive() external payable {\r\n        buyTokens();\r\n    }\r\n\r\n    function buyTokens() public payable {\r\n        uint256 weiAmount = msg.value;\r\n        uint256 tokens = weiAmount * rate;\r\n        weiRaised += weiAmount;\r\n\r\n        token.transfer(msg.sender, tokens);\r\n        emit TokensPurchased(msg.sender, weiAmount, tokens);\r\n\r\n        payable(owner()).transfer(weiAmount);\r\n    }\r\n\r\n    event TokensPurchased(address indexed purchaser, uint256 value, uint256 amount);\r\n\r\n    function setRate(uint256 newRate) external onlyOwner {\r\n        rate = newRate;\r\n    }\r\n}\r\n",
  "sourcePath": "C:\\Users\\USER\\Desktop\\MyTokenProject\\contracts\\Presale.sol",
  "compiler": {
    "name": "solc",
    "version": "0.8.20+commit.a1b79de6.Emscripten.clang"
  },
  "schemaVersion": "3.4.16",
  "updatedAt": "2024-05-18T12:18:23.203Z",
  "devdoc": {
    "errors": {
      "OwnableInvalidOwner(address)": [
        {
          "details": "The owner is not a valid owner account. (eg. `address(0)`)"
        }
      ],
      "OwnableUnauthorizedAccount(address)": [
        {
          "details": "The caller account is not authorized to perform an operation."
        }
      ]
    },
    "kind": "dev",
    "methods": {
      "owner()": {
        "details": "Returns the address of the current owner."
      },
      "renounceOwnership()": {
        "details": "Leaves the contract without owner. It will not be possible to call `onlyOwner` functions. Can only be called by the current owner. NOTE: Renouncing ownership will leave the contract without an owner, thereby disabling any functionality that is only available to the owner."
      },
      "transferOwnership(address)": {
        "details": "Transfers ownership of the contract to a new account (`newOwner`). Can only be called by the current owner."
      }
    },
    "version": 1
  },
  "userdoc": {
    "kind": "user",
    "methods": {},
    "version": 1
  }
}